:020000040800F2
:10000000F0FF042041B80308592201085D220108CD
:100010006D2201087D2201088D22010800000000E8
:100020000000000000000000000000009D22010808
:10003000A122010800000000A5220108A922010850
:1000400091B8030891B8030891B8030891B8030860
:1000500091B8030891B8030891B8030891B8030850
:1000600091B8030891B8030891B8030891B8030840
:1000700091B8030891B8030891B8030891B8030830
:1000800091B8030891B80308E125010891B8030865
:1000900091B8030891B8030891B8030891B8030810
:1000A00091B8030891B8030891B80308F12B01082F
:1000B000DD2B010891B8030891B8030891B8030833
:1000C00091B8030891B8030891B8030891B80308E0
:1000D00091B8030891B8030891B8030891B80308D0
:1000E000F51D010891B8030891B8030891B80308F9
:1000F00091B8030891B8030891B8030891B80308B0
:1001000091B8030891B8030891B8030891B803089F
:1001100091B8030891B8030891B8030891B803088F
:10012000FD25010891B8030891B8030891B80308A8
:1001300091B8030891B8030891B8030891B803086F
:1001400091B8030891B8030891B8030891B803085F
:1001500091B8030891B8030891B8030891B803084F
:1001600091B8030891B8030891B8030891B803083F
:1001700091B8030891B8030891B803080000000083
:1001800091B8030891B8030891B8030891B803081F
:1001900091B8030891B8030891B8030891B803080F
:1001A000C91A010891B803083922010891B8030857
:1001B00091B8030891B8030891B8030891B80308EF
:0801C00091B8030891B803088F
:1002000010B5054C237833B9044B13B10448AFF350
:1002100000800123237010BD540A0020000000005C
:100220006052040808B5034B1BB103490348AFF300
:10023000008008BD00000000580A00206052040839
:10024000154B002B08BF134B9D46A3F5803A0021A8
:100250008B460F461348144A121A3BF011FD0F4B00
:10026000002B00D098470E4B002B00D09847002061
:10027000002104000D000D48002802D00C483EF07B
:1002800097F83BF075FC200029003BF003FB3BF0A6
:100290003DFC00BF0000080000000000000000005E
:1002A00000000000540A002054140020B1E30308A9
:1002B00029F70308D4D6040800000020540A0020BF
:1002C000540A002054140020704700BF08B511F0F4
:1002D000C3FD0248BDE8084011F090BDC902000806
:1002E000704700BF0020704708B911F0BDBD11F084
:1002F000B7BD00BFB0B100F5007100B5C1B06A462E
:1003000030F8023B2BB1814203D002F8013B0028B8
:10031000F6D1002369460448137010F03DFC41B04B
:100320005DF804FB704700BF08AF040808B512F081
:10033000FFFB0248BDE8084010F02EBC1CAF0408CB
:1003400012F0A4BA10B50446044810F025FC0120B0
:10035000E1B2BDE8104012F073B900BF30AF04083D
:1003600010B50446044810F017FC0220E1B2BDE8C5
:10037000104012F065B900BF30AF040808B5012085
:1003800012F034FA08BD00BF08B5022012F02EFAB0
:1003900008BD00BF08B5012012F048FA08BD00BF33
:1003A00008B5022012F042FA08BD00BF08B50120CE
:1003B00012F0F2FA003018BF012008BD08B5022083
:1003C00012F0EAFA003018BF012008BD08B501207C
:1003D00012F01CFA003018BF012008BD08B5022039
:1003E00012F014FA003018BF012008BD08B5012032
:1003F00012F0E0F9A0F10100B0FA80F0400908BD68
:10040000FFF7F4BF074B187858B1012809D002282C
:1004100007D0032805D0042803D005280CBF0520E9
:1004200006207047450B002084B001A804B080E886
:100430000E00704782B08DE80C0002B0704700BF1C
:100440000020704784B0002010B402AC84E80E0095
:100450005DF8044B04B0704782B010B400240DF175
:10046000040CC0E900445DF8044B8CE80C0002B0B9
:10047000704700BF82B002AB03E9060002B07047CC
:100480000022C0E90022C0E902227047283110B4DE
:1004900004460FC984E80F0020465DF8044B7047FE
:1004A00082B002AB03E9060002B07047704700BF9C
:1004B000704700BF03681B6A184700BF10B50446A9
:1004C00026F064FA034940F2031214232160E2612A
:1004D000636210BD0000009010B5044626F056FA85
:1004E00040F203111422024BE1616262236010BDED
:1004F0004800009010B5044626F048FA40F2031177
:100500001422024BE1616262236010BD90000090F2
:1005100038B5044626F03AFA14210A4A40F21B1371
:100520004FF47A7508206162226000214FF0FF329B
:10053000E3610123C4E92950C4E92B12C4E92D3336
:1005400038BD00BFE800009010B5044626F01EFA42
:1005500040F203111422024BE1616262236010BD7C
:100560004001009010B5044626F010FA142004490A
:1005700040F20322002360622160E261636410BDE7
:100580008C01009038B5044626F000FA1422084B7E
:1005900040F21B154FF47A7008216262236000223A
:1005A0004FF0FF33E561C4E91801C4E91A2338BDEF
:1005B000D801009010B5044626F0E8F9014B2360FD
:1005C00010BD00BF2402009010B5044626F0DEF9ED
:1005D000014B236010BD00BF4802009010B50446D7
:1005E00026F0D4F9014B236010BD00BF6C020090CF
:1005F00010B5044626F0CAF9014B236010BD00BFB8
:100600009002009010B5044626F0C0F9014B23601B
:1006100010BD00BFB402009010B5044626F0B6F934
:10062000024A4FF47A732260236210BDD802009010
:1006300026F0B6B926F0B4B926F0B2B926F0B0B9B2
:1006400026F0AEB926F0ACB926F0AAB926F0A8B9C2
:1006500026F0A6B926F0A4B926F0A2B926F0A0B9D2
:1006600026F09EB926F09CB926F09AB926F098B9E2
:1006700026F096B926F094B926F092B926F090B9F2
:1006800026F08EB910B5044626F08AF904F164000C
:10069000BDE8104026F084B9014B036026F092B902
:1006A00000000090014B036026F08CB90000009020
:1006B000014B036026F086B900000090014B0360F7
:1006C00026F080B900000090014B036026F07AB953
:1006D00000000090014B036026F074B90000009008
:1006E000014B036026F06EB900000090014B0360DF
:1006F00026F068B900000090014B036026F062B953
:1007000000030090014B036026F05CB900030090E9
:10071000014B036026F056B900030090014B0360C3
:1007200026F050B900030090014B036026F04AB94F
:1007300000030090014B036026F044B924030090AD
:10074000014B036026F03EB924020090014B036088
:1007500026F038B948020090014B036026F032B908
:100760006C020090014B036026F02CB96C020090E3
:10077000014B036026F026B96C020090036910B5A6
:1007800004464BB1194AD9681268914204D01968DD
:100790001846DA60CB69984763694BB1134AD96848
:1007A0001268914204D019681846DA60CB699847FC
:1007B000A3694BB10D4AD9681268914204D01968F7
:1007C0001846DA60CB699847236A4BB1074AD96863
:1007D0001268914204D019681846DA60CB699847CC
:1007E0002046BDE8104026F0DDB800BF080E00200E
:1007F000FFF7C4BFFFF7C2BF436F10B504464BB14C
:10080000274AD9681268914204D019681846DA60FC
:10081000CB699847E36F4BB1214AD968126891427E
:1008200004D019681846DA60CB699847D4F8843048
:100830004BB11B4AD9681268914204D01968184616
:10084000DA60CB699847D4F88C304BB1144AD96838
:100850001268914204D019681846DA60CB6998474B
:10086000D4F894304BB10E4AD9681268914204D042
:1008700019681846DA60CB699847D4F89C304BB1B8
:10088000074AD9681268914204D019681846DA609C
:10089000CB6998472046BDE81040FFF76FBF00BF07
:1008A000080E0020FFF76ABF836B10B504464BB1FA
:1008B0001F4AD9681268914204D019681846DA6054
:1008C000CB699847E36B4BB1194AD96812689142DA
:1008D00004D019681846DA60CB699847236C4BB18D
:1008E000134AD9681268914204D019681846DA6030
:1008F000CB699847636C4BB10D4AD9681268914235
:1009000004D019681846DA60CB699847A36C4BB1DC
:10091000074AD9681268914204D019681846DA600B
:10092000CB6998472046BDE81040FFF727BF00BFBE
:10093000080E0020FFF722BF836C10B504464BB1B0
:10094000134AD9681268914204D019681846DA60CF
:10095000CB699847236D4BB10D4AD9681268914213
:1009600004D019681846DA60CB699847A36D4BB17B
:10097000074AD9681268914204D019681846DA60AB
:10098000CB6998472046BDE81040FFF7F7BE00BF8F
:10099000080E002026F006B826F004B8836910B5CA
:1009A00004464BB1074AD9681268914204D01968CD
:1009B0001846DA60CB6998472046BDE8104025F01C
:1009C000F1BF00BF080E002025F0ECBF25F0EABF04
:1009D000436910B504464BB1194AD968126891426F
:1009E00004D019681846DA60CB699847236A4BB17E
:1009F000134AD9681268914204D019681846DA601F
:100A0000CB699847A36A4BB10D4AD96812689142E5
:100A100004D019681846DA60CB699847236B4BB14C
:100A2000074AD9681268914204D019681846DA60FA
:100A3000CB6998472046BDE8104025F0B3BF00BF02
:100A4000080E0020C36910B504464BB1074AD968A7
:100A50001268914204D019681846DA60CB69984749
:100A60002046BDE8104025F09DBF00BF080E0020C5
:100A7000036910B504464BB1074AD9681268914220
:100A800004D019681846DA60CB6998472046BDE85B
:100A9000104025F087BF00BF080E0020036B10B583
:100AA00004464BB1074AD9681268914204D01968CC
:100AB0001846DA60CB6998472046BDE8104025F01B
:100AC00071BF00BF080E0020FFF7E8BFFFF7E6BFC9
:100AD00025F068BF836910B504464BB1074AD96851
:100AE0001268914204D019681846DA60CB699847B9
:100AF0002046BDE8104025F055BF00BF080E00207D
:100B000038B5846954B1064D01E0A46934B1294671
:100B1000204626F09DF80028F7D038BD002038BDCB
:100B20004803009084B02DE9F04107AC80460E48A0
:100B30000B9F84E80E00002125F046FF08F12803F2
:100B4000054600F1200600F1100C0FCB8CE80F00D9
:100B500094E80F0086E80F002F63C8F82050BDE826
:100B6000F04104B0704700BF6C02009084B02DE9E2
:100B7000F04184B0044622480BAEE8460F9F86E859
:100B80000E00002125F020FF0022236805462146A3
:100B900040462262DB6B984705F1100E05F1200CF0
:100BA00098E80F0004F140088EE80F0096E80F0067
:100BB00005F1500E05F140068CE80F0098E803009F
:100BC00004F138032F6305F1480C04F1300704F1F8
:100BD00028028EE8030093E8030005F138038CE84F
:100BE000030097E8030086E8030092E8030083E827
:100BF0000300256204B0BDE8F04104B0704700BFB7
:100C0000B402009082B02DE9F04FA1B00D46B84972
:100C10002C9C069005942D9C029207942AACDDF83A
:100C2000B8A084E80C002B9BD5E9080B039326F0B1
:100C30000FF804462D9B0CA8D4E90489D4E9067664
:100C40000093A7EB08030893A6EB090304932AABD0
:100C50000ECB26F06BFCBAF1000F00F04B810AF1CD
:100C6000FF3ABAF1030F12D8DFE81AF090019D01A4
:100C7000A2010400059F1BF0020F089AA7EB0208CF
:100C800000F09F81039B079E9946F21A0492BAF1E5
:100C9000010F40F2B980B145B8BFB8452269A669D5
:100CA000A7EB0801049BA8BF4FF0010CD4F814A0D7
:100CB000A6EB020603F1FF33E769079101F1FF316B
:100CC000B8BF4FF0000C0393013E236D606DA7EB9E
:100CD0000A07029108BF0126991A013F039B05925A
:100CE000A0EB0A02029808BF012703FB02F200FBF7
:100CF00001F1E86984F834C0C30591FBF6F192FB79
:100D0000F7F241444A4400F1948010AB0DF1480BD6
:100D10001846089326F0DAF9089B0DF1780C2A683A
:100D200093E80300136D8CE8030028469CE8060056
:100D30009847059B5846D4E91212C91AA2EB0A0239
:100D4000039B03FB02F2029B03FB01F192FBF7F210
:100D500091FBF6F14A44414426F0B8F91CAA2B68ED
:100D60009BE80300DB6C0DF1580B82E8030028467A
:100D700006CA9847059B14A8D4E91012C91AA2EB19
:100D80000A02039B03FB02F2029B03FB01F192FBAD
:100D9000F7F291FBF6F14A44414426F097F914A981
:100DA0001AAA2B6803C99B6C82E80300284606CA6E
:100DB0009847059B5846D4E90E12C91AA2EB0A02BD
:100DC000039B03FB02F2029B03FB01F192FBF7F290
:100DD00091FBF6F14A44414426F078F918AA2B68B1
:100DE0009BE803005B6C82E80300284606CA98472C
:100DF0002C62049ADDE9060126F068F9069821B014
:100E0000BDE8F04F02B070471BF0010F40F0E780E3
:100E10001BF0040F0BF008030BF0040200F0178125
:100E2000002B40F01481089B1F46029B1F449846EC
:100E300031E70DF1280B584626F048F9059903983B
:100E400005F1400CD4E912325B1AA2EB0A020299B6
:100E500000FB02F201FB03F392FBF7F293FBF6F3C4
:100E60009BE803004A448CE8030003EB0801584662
:100E700026F02CF90599039805F1380CD4E91032C5
:100E80005B1AA2EB0A02029900FB02F201FB03F3D8
:100E900092FBF7F293FBF6F39BE803004A448CE8DD
:100EA000030003EB0801584626F010F9059805F1F8
:100EB00030032835D4E90E12091AA2EB0A0203986E
:100EC00000FB02F2029800FB01F192FBF7F291FBAA
:100ED000F6F69BE803004A4483E8030006EB0801AA
:100EE000584626F0F3F89BE8030085E8030080E706
:100EF000B4020090E26A04F120030EA8DDF830A0ED
:100F000000920D9A09920ECB26F010FBA16AE26ABC
:100F10007F1AA6EB020C0F9ED4E90830A8EB030859
:100F20000E9BA9EB00099A4576D00BF001021BF04D
:100F3000040F0BF008015FFA82FE54D0029880443F
:100F4000002940F0EE80BEF1000F40F0F880089BD1
:100F500043441F46099BB34255D01BF0100F0BF0C2
:100F600020030BF00201CBF340025BD1002B77D0C2
:100F7000002A75D1039A9144079A62441646002BC1
:100F800000F08180049BA6EB030984E6049B1E46C7
:100F9000039B1E449946A6EB0903BAF1010F049383
:100FA0003FF679AE30E7079E049AA6EB0209F2E716
:100FB000029B1BF0020F089A984602EB03077FF48E
:100FC00061AE1BF0100F0BF020030BF0100235D0B8
:100FD000002B33D1DDE90332D618994657E6059F39
:100FE000DDF8088057E6002956D0BEF1000F53D136
:100FF000029B9844059B3B441F46002AAAD1089BAC
:10100000A7EB0308A6E7039B9944079B63441E468E
:10101000A6EB090304933EE6029B9844059B3B44E0
:101020001F4697E7039A9144002B40F081800029E6
:1010300040F09080049B03EB09062CE6002B61D066
:10104000002A5FD1079E049AA6EB02091FE6002B37
:1010500049D0002A47D1059F089AA7EB02081AE653
:10106000099A02FB09F9039A99FBF6F99144002BBE
:1010700033D1099B03FB0CF2079B92FBF6F633443A
:101080001E460029C4D1A6EB0906049BF61A48BFE8
:10109000013609EB6609CDE70AFB08F8029898FBD0
:1010A000F3F8804491B90AFB07F797FBF3F7059B28
:1010B0003B441F46002A7FF44DAFA7EB0807089B6F
:1010C000FF1A48BF013708EB670840E7059B3B4420
:1010D0001F46002A7FF43EAF91E7079A6244164606
:1010E000002995D14BE72AAB0FCB26F005FA089BD8
:1010F000C01A029B48BF013003EB6008089B4344C1
:101100001F46C8E52AAB0FCB26F0ECF9049BC01AAA
:10111000039B48BF013003EB6009049B03EB090606
:10112000B5E5059B3B441F46002A7FF413AFC4E797
:10113000079B63441E4600297FF46AAFA3E70AFBBE
:1011400007F797FBF3F7059B3B441F46002A3FF444
:10115000FEAEFFE6099B03FB0CF2079B92FBF6F643
:1011600033441E4654E700BF2DE9F04196B00446D3
:1011700004AD85E80600002B57D106AD059900F1B6
:101180004002049B2846009108AF0AAE06CA25F02B
:10119000CFFF14AB226895E80300156D83E80300C8
:1011A000204693E80600A847059B04F1380238461C
:1011B00000930CAD049B06CA25F0BAFF12AB22685F
:1011C00097E80300D76C83E80300204693E8060005
:1011D000B847059B04F1300230460093049B06CAD1
:1011E00025F0A6FF10AB226896E80300966C83E812
:1011F0000300204693E80600B047059B04F128024F
:1012000028460093049B06CA25F092FF22680EAB85
:1012100095E80300556C83E80300204693E8060038
:101220002B4616B0BDE8F041184702AD059A00F113
:1012300040080B462846009204F1380704F13006B6
:10124000283498E8060025F073FFDDE904320092A7
:1012500095E8030088E80300284697E8060025F093
:1012600067FFDDE90432009295E8030087E8030098
:10127000284696E8060025F05BFFDDE9043200927F
:1012800095E8030086E80300284694E8060025F068
:101290004FFF95E8030084E8030016B0BDE8F08135
:1012A00082B02DE9F04F0D469DB02C6A049129992A
:1012B000D5F824A00891039010A80592D4E90468F9
:1012C000D4E906790091B91BA9EB080B099128997B
:1012D000079126A981E80C00279D0EC9069526F0E6
:1012E00025F92A9B002B70D02A9B013B1D46032B1E
:1012F00011D8DFE803F0B1BCC102079F1AF0020F5A
:10130000099BA7EB030600F0BF80089B069999464E
:10131000A3EB010B8846012D2B4632D9C845B8BF37
:10132000BE42049DACBF0123002384F83430EB6936
:10133000DB053BD40DF1500A42463B463146504650
:10134000CDF8009025F040FF049D0DF1600CD5F81C
:1013500000E09AE80F008CE80F001B9B28460093E2
:10136000DEF844809CE80E00C0472C6203985A4681
:10137000B91B25F0ABFE03981DB0BDE8F04F02B0DD
:1013800070471AF0010F40F08C801AF0040F0AF039
:1013900008030AF0040200F0B380002B40F0B08094
:1013A000099B059E1F4633463744B7E70CAC4246BF
:1013B0003B4631462046CDF8009025F005FF283504
:1013C00094E80F0085E80F00D0E7E26A04F12003FB
:1013D000109D12A80092119A0B950A920ECB26F03E
:1013E000A5F8A16AE26A7F1ADDF84CC0A9EB0209F0
:1013F000D4E90830F61A129BA8EB00089D4267D08A
:101400000AF001021AF0040F0AF00801D0B24BD022
:10141000059D2E44002940F0DB80002840F0E48048
:10142000099B33441F460A9B63454AD01AF0100FAC
:101430000AF020030AF00201CAF340024DD1002B4A
:1014400066D0002A64D1069A9044089A9144002BF1
:1014500071D0A9EB0B0861E7069B0BEB03099846DB
:10146000012DA9EB080B2B463FF658AF89E7089BE7
:10147000A3EB0B089946F3E7099B1AF0020F059EB0
:1014800003EB06077FF441AF1AF0100F0AF02003B8
:101490000AF010022BD053BB069B0BEB03099846B6
:1014A00039E7079F059E39E700294ED000284CD127
:1014B000059B1E44079B1F44002AB4D1099BFE1ABA
:1014C000B1E7069B9844089B9944A9EB080B25E7D4
:1014D000059B1E44079B1F44A5E7069A9044002BDA
:1014E0007CD1002940F08C800BEB080916E7002B1B
:1014F00060D0002A5ED1089BA3EB0B0899460AE74F
:10150000002B48D0002A46D1079F099BFE1A05E709
:101510000A9A02FB08F8069A98FBFCF89044002B04
:1015200034D10A9B03FB09F9089B99FBFCF94B4456
:1015300099460029C9D1A9EB0809B9EB0B0948BFA5
:1015400009F1010908EB6908CEE70B9800FB06F6E4
:10155000059896FBF3F6064491B90B9901FB07F148
:1015600091FBF3F7079B3B441F46002A7FF45BAFD8
:10157000BF1B099BFF1A48BF013706EB67064FE701
:10158000079B1F44002A7FF44EAF97E7089A9144C7
:1015900000299AD15BE726AB0FCB25F0ADFF099B65
:1015A000C01A059B48BF013003EB6006099B33441A
:1015B0001F46B3E626AB0FCB25F094FFB0EB0B0034
:1015C000069B48BF013003EB60080BEB0809A2E65D
:1015D000079B1F44002A7FF426AFC9E7089B994464
:1015E00000297FF472AFA6E70B9901FB07F191FB8D
:1015F000F3F7079B3B441F46002A3FF411AF12E765
:101600000A9B03FB09F9089B99FBFCF94B4499469B
:101610005BE700BF2DE9F04196B000F128070446D2
:1016200002AD85E8060097E80C0095E8030025F078
:1016300051FD002845D0A669002E45D0E36913F07E
:1016400001025DD00DF11808236821464046DB6B8E
:1016500098470DF1380CD6F800E098E80F008CE8B8
:101660000F00119B30460093DEF85C609CE80E0092
:10167000B0470023A669236295E8030087E80300CA
:10168000FEB1E369DD0717D50AAF2368214612AD25
:101690003846DB6B9847D6F800C097E80F0085E81E
:1016A0000F00159B30460093DCF85C6095E80E0057
:1016B000B047A6692EB1E369580502D5F2699104D5
:1016C0000AD516B0BDE8F08195E80300266287E8E8
:1016D000030016B0BDE8F08143F4006304AD42F4AA
:1016E00080423146E3612846F261084A26F090FDC7
:1016F000224695E8030016B0BDE8F04126F0CEBDC5
:1017000095E80300226287E80300BBE7C93F0008B1
:101710002DE9F04196B000F13007044602AD85E8AE
:10172000060097E80C0095E8030025F0D3FC00289C
:1017300045D0A669002E45D0E36913F001025DD0C3
:101740000DF11808236821464046DB6B98470DF1E0
:10175000380CD6F800E098E80F008CE80F00119BD9
:1017600030460093DEF85C609CE80E00B047002332
:10177000A669236295E8030087E80300FEB1E369E8
:10178000DD0717D50AAF2368214612AD3846DB6B5B
:101790009847D6F800C097E80F0085E80F00159B22
:1017A00030460093DCF85C6095E80E00B047A6690F
:1017B0002EB1E369580502D5F26991040AD516B035
:1017C000BDE8F08195E80300266287E8030016B0C3
:1017D000BDE8F08143F4006304AD42F48042314639
:1017E000E3612846F261084A26F012FD224695E898
:1017F000030016B0BDE8F04126F050BD95E80300A7
:10180000226287E80300BBE7C93F00082DE9F041E9
:1018100096B000F13807044602AD85E8060097E867
:101820000C0095E8030025F055FC002845D0A6697A
:10183000002E45D0E36913F001025DD00DF11808C8
:10184000236821464046DB6B98470DF1380CD6F8EB
:1018500000E098E80F008CE80F00119B30460093E1
:10186000DEF85C609CE80E00B0470023A6692362A6
:1018700095E8030087E80300FEB1E369DD0717D5AB
:101880000AAF2368214612AD3846DB6B9847D6F87D
:1018900000C097E80F0085E80F00159B30460093C5
:1018A000DCF85C6095E80E00B047A6692EB1E369EC
:1018B000580502D5F26991040AD516B0BDE8F08149
:1018C00095E80300266287E8030016B0BDE8F081C2
:1018D00043F4006304AD42F480423146E36128469C
:1018E000F261084A26F094FC224695E8030016B0FF
:1018F000BDE8F04126F0D2BC95E80300226287E8FB
:101900000300BBE7C93F00082DE9F04196B000F1A4
:101910004007044602AD85E8060097E80C0095E80C
:10192000030025F0D7FB002845D0A669002E45D03E
:10193000E36913F001025DD00DF118082368214618
:101940004046DB6B98470DF1380CD6F800E098E87C
:101950000F008CE80F00119B30460093DEF85C60AE
:101960009CE80E00B0470023A669236295E80300B7
:1019700087E80300FEB1E369DD0717D50AAF2368E6
:10198000214612AD3846DB6B9847D6F800C097E881
:101990000F0085E80F00159B30460093DCF85C6073
:1019A00095E80E00B047A6692EB1E369580502D547
:1019B000F26991040AD516B0BDE8F08195E80300FC
:1019C000266287E8030016B0BDE8F08143F40063A7
:1019D00004AD42F480423146E3612846F261084A90
:1019E00026F016FC224695E8030016B0BDE8F0414B
:1019F00026F054BC95E80300226287E80300BBE7A9
:101A0000C93F0008F0B593B0044608AD85E806006C
:101A1000E3B90AAE04F1280395E80300656B01A958
:101A200081E80500009530460EAD0ECB25F044FD53
:101A3000276896E80F0085E80F00119B2046009369
:101A40007C6C95E80E00A04713B0F0BD476B01AB6E
:101A500004AE283495E8030083E80500304600977B
:101A600094E80E0025F028FD96E80F0084E80F00AA
:101A700013B0F0BD84B0F0B58FB000F12805064674
:101A800015AC84E80E0095E80F008DE80F0094E88F
:101A90000F0025F0BBFB00283DD0B769002F3FD0D9
:101AA000D6F81CC01CF0010E5AD00DF1180CD7F856
:101AB00000E095E80F008CE80F00099B3846009382
:101AC000DEF85C709CE80E00B8470023B76933620B
:101AD00094E80F0085E80F00EFB1D6F81CC01CF0A9
:101AE000010F12D00AACD7F800C095E80F0084E8C7
:101AF0000F000D9B38460093DCF85C5094E80E0014
:101B0000A847B7693FB1D6F81CC01CF4806F02D05B
:101B1000FB699B040ED50FB0BDE8F04004B07047E0
:101B200094E80F00376285E80F000FB0BDE8F04081
:101B300004B070474CF4006304AC39460C4AF361BE
:101B40002046FB6943F48043FB6126F061FB32468B
:101B500094E803000FB0BDE8F04004B026F09EBB4F
:101B600094E80F00C6F820E085E80F00B7E700BF53
:101B7000C93F000884B02DE9F04FA9B0044601A880
:101B800008AF04F1280810AD06460020E46B786029
:101B900008900696DDF8E4B0C7E9020033A880E8B3
:101BA0000E0098E80F0086E80F0033AB369E2846FB
:101BB0000ECB009625F088FB95E80F0025F05AFB28
:101BC000002840F0DF800546069E369B98E803001B
:101BD00086E8030033A8009390E80E0025F056FC39
:101BE000002C00F0CF800DF13008AA46E3695905BA
:101BF00002D5002D00F0A480A5425BD003F01803AD
:101C0000182B53D1236821464046DB6B9847A345E8
:101C10007CD0E3695B0553D5CDF81CB0069E0DF171
:101C2000600997E80F0086E80F000F9B4846009375
:101C300098E80E0025F048FB99E80F0025F01AFB04
:101C4000002833D13A9B0DF1800CD4F800E00493C6
:101C5000079B0393389B0293379B019397E80F00F0
:101C60008CE80F00239B00932046DEF830909CE820
:101C70000E00C847646988B10369BAF1000F06D045
:101C8000DAF810209A4201DD002B00DA504623B921
:101C900029B0BDE8F04F04B070478246002CA5D1B2
:101CA000504629B0BDE8F04F04B070476469002C7D
:101CB0009CD1F5E70025C7E90055C7E902559DE726
:101CC00033AB069E0DF170090FCB86E80F000F9B1A
:101CD0004846009398E80E0025F0F6FA99E80F00C0
:101CE00025F0C8FA0028E1D15B463A9A0DF1900C34
:101CF000D4F800E0CDE90332389B0293379B01937F
:101D000033AB0FCB8CE80F00279BACE7DBF81C3024
:101D100013F4806902D0002307937FE733AB069E5C
:101D20000FCB86E80F000F9B1CA8009398E80E00CD
:101D300025F0CAFA1CAB0FCB25F09CFA4B46D4E732
:101D4000656915B917E06D69ADB1EA699205FAD513
:101D50002B68294614A8DB6B984714AB069E0FCB63
:101D600086E80F00369B3846009333AB0ECB25F048
:101D7000ABFAE36940E700223A601546FA60C7E92A
:101D800001223BE7002029B0BDE8F04F04B07047C6
:101D900084B02DE9F04190B000F12805064617AC5B
:101DA00084E80E0095E80F008DE80F0094E80F001E
:101DB00025F02CFA20B910B0BDE8F04104B070470E
:101DC000736B0DF1100806AF4046009395E80E00C6
:101DD00025F0ACFB1A9B3846009394E80E0025F0E2
:101DE000A5FB97E80C0098E8030025F073F910F0C4
:101DF000FF0F2DD0706C58B197E8060006F0A0FADE
:101E00000021304626F086FC0021706C26F082FC12
:101E10001A9B3046009394E80E00FFF72BFE049BBC
:101E2000002B21DD059A08AD002A1FDCF36931463D
:101E30002846224A43F4A043F36126F0E9F93246EA
:101E400095E8030010B0BDE8F04104B026F026BAD2
:101E50001A9B3046009394E80E00FFF70BFE10B07B
:101E6000BDE8F04104B0704708ADDFE714492846EB
:101E7000009206C925F0B0F9B46B002CD6D00CAF97
:101E800002E02469002CD1D0236A002BF9D1636AC7
:101E9000142BF6D0E36913F48063F2D1D4F800C0B8
:101EA000019395E80F0087E80F000F9B20460093F1
:101EB000DCF8208097E80E00C047E2E7C93F000841
:101EC000B403009084B02DE9F04794B000F12805E8
:101ED00006461DAC84E80E0095E80F008DE80F0063
:101EE00094E80F0025F092F920B914B0BDE8F0474E
:101EF00004B070470DF11008736B0DF1180908AFAD
:101F00004046009395E80E0025F010FB209B4846C4
:101F1000009394E80E0025F009FB99E80C0098E87E
:101F2000030025F0D7F8F26AB36A5FFA80F80092EE
:101F3000384694E8060025F0E9F84F4B97E803008F
:101F40000CCB25F0C7F860B3B8F1000F2CD1356980
:101F5000DDB1EB69990518D40DF1300802E0EB69A9
:101F60009A0512D413F4806FC3F300230AD02A68B1
:101F700097E80300D2F8389088E80300284698E8EC
:101F80000600C8472D69002DE9D1209B30460093FB
:101F900094E80E00FFF76EFD14B0BDE8F04704B002
:101FA0007047B8F1000FF0D0049B002B02DD059BB9
:101FB000002B22DC209B3046009394E80E00FFF7B4
:101FC00059FDB369002B90D0F269D86942F4805270
:101FD000F261820489D40AAC40F480401946274A51
:101FE000D861204626F014F9324694E8030014B074
:101FF000BDE8F04704B026F051B906F13803776B1D
:1020000001AA0DF1300893E8030082E8030000976D
:10201000404695E80E0025F04FFA3569002DC9D0ED
:10202000EB6913F40079C5D110AF14E0D5F800C006
:10203000019698E80F0087E80F00139B284600934D
:10204000DCF820A097E80E00D0472D69002DB1D014
:10205000EB699905AED45805F7D52B6A23B11B6BF4
:10206000B342F2D0C5F820906B6A142BDED1736CAA
:10207000002BEAD0DAE700BFB4030090C93F0008A4
:1020800084B02DE9F04F93B01DAC84E80E00002819
:102090004CD082460546DFF8F8B00DF1180901AEC4
:1020A00094E80F0025F0E6F800283FD1AB69D5F899
:1020B00044800BB9AA4558D1B8F1000F16D008F1E9
:1020C0002C0797E80F0025F0D5F8002844D19BF89D
:1020D000003083B36A6B05F12803484600920ECBAB
:1020E00025F034FA99E80F0087E80F00EB69DB0769
:1020F0001CD505F12807209B0DF1280897E803005F
:1021000086E803004046009394E80E0025F0D4F9D9
:1021100097E80F0086E80F000D9898E80E000090F1
:10212000204625F0D1F8AD69002DB9D113B0BDE836
:10213000F04F04B0704794E80F0086E80F00D8F81D
:1021400038304846009397E80E0025F0FBF899E8F0
:102150000F0087E80F00C9E72846002126F0DAFAC9
:102160000021404626F0D6FAB1E794E80F000EAE03
:102170002F6886E80F00119B28462093FC6D96E897
:102180000E00A44613B0BDE8F04F04B0604700BF96
:10219000A80E002038B5026D0446274D2B6842B1C9
:1021A000D168994205D011681046D360CB69984731
:1021B0002B68E26D42B1D168994205D01168104692
:1021C000D360CB6998472B68226F04F164009A4270
:1021D00003D0626E2367D3699847D4F8F83143B1CE
:1021E0002A68D968914204D019681846DA60CB6928
:1021F00098470A2104F5137024F0DCFDD4F8A433C9
:1022000043B12A68D968914204D019681846DA6047
:10221000CB699847D4F8FC3343B12A68D968914216
:1022200004D019681846DA60CB6998472046BDE8A3
:102230003840FEF739BB00BF080E002010B5044639
:1022400024F0A4FB024B23600EF0D2FC206110BDF1
:102250000003009038B5074C054624F097FB04F5C1
:10226000407304F56F742B600EF0C2FC2C60286183
:1022700038BD00BF0000009038B5074C054624F07B
:1022800085FB04F5407304F578742B600EF0B0FC08
:102290002C60286138BD00BF0000009038B5074CA5
:1022A000054624F073FB04F5407304F204442B60EC
:1022B0000EF09EFC2C60286138BD00BF000000902D
:1022C00038B5074C054624F061FB04F5407304F56E
:1022D00085642B600EF08CFC2C60286138BD00BF3B
:1022E0000000009084B02DE9F04F8DB017AC1D9D1B
:1022F00084E80E001B9A0DB1854252D1C36E934201
:1023000001D0002B4DDA90F87330002B46D1836E4C
:102310001E9A1A4245D100F128031A9F01AE0DF111
:10232000200805460FCB86E80F000097404694E84A
:102330000E0024F0C9FF98E80F00DDE908B7DDE9D9
:102340000AA924F097FF064658BB1A9B06A80093DB
:1023500094E80E0025F00EF9DDE906239345C8BF89
:10236000ABEB0206924502DCAAEB0206013E9F425D
:10237000CCBFFC1A0024994519DD00210E4824F039
:1023800023FB04FB04F3C56106FB0633C0E90564C7
:1023900003610DB0BDE8F04F04B07047836B93420A
:1023A000B5D000200DB0BDE8F04F04B07047A9EBE8
:1023B0000304013CE1E700BF24020090074A0369DF
:1023C00010B5044602600BB125F0BEFB0023204689
:1023D0002361BDE8104024F0F5BA00BF4C04009022
:1023E00038B50446154624F0D1FA044B23601DB1DC
:1023F0002946204625F074FB256138BD4C04009029
:1024000010B5074B04460069236008B127F03CFC77
:10241000002320462361BDE8104024F0D3BA00BF5A
:10242000D802009038B5074D044605F5527340F8C0
:10243000643BFFF7E5FF25602046BDE8384024F007
:10244000C1BA00BF000000900B6AF0B5054683B02A
:1024500013B193F83430CBBB0B6CD1F828C04C6C63
:102460006345CF6AD1E90C2ED1E90E6036D0934294
:102470001946A8BF11469342B8BF13467445224679
:10248000A8BF72467445B8BF74466145A8BF61468F
:102490006345B8BF63468242A8BF0246A042B8BFA8
:1024A0002046B142A8BF3146B342B8BF3346BA4214
:1024B000A8BF3A46B842B8BF384601300133009051
:1024C000284624F081FE284603B0F0BD0023C0E971
:1024D0000033C0E90233284603B0F0BD8442C6D1C0
:1024E000B242C4D1BE45C2D1934206DC194613465E
:1024F000874204DB02463846DFE71146F8E73A46F2
:10250000DBE700BF70B505460C4641B18B698342DD
:102510001BD1CB6903F01403142B18BF0024A86C43
:10252000A04219D020B10368602200211B6C98479B
:10253000AC648CB1EA692046236812F040021B6C3F
:102540000BD12021BDE870401847064826F05AFC00
:10255000BDE8704024F012BA70BD00226021BDE8D1
:102560007040184770040090D0F8FC338B4200D1C3
:1025700009B9FFF7C7BF70472DE9F0418EB0F9B137
:102580008F690C46874213D1002A40F3AA800D6957
:102590001DB90AE02B6913B11D46013AFAD1631B3C
:1025A0002646B3FA83F35B0993B10EB0BDE8F08120
:1025B000574826F027FC0EB0BDE8F04124F0DEB904
:1025C000544826F01FFC0EB0BDE8F04124F0D6B907
:1025D0006169E36940F2014098431A4657D090057B
:1025E0001AD521B1CB6943F40063CB61E36943F4AD
:1025F00000630DF11008484A3946E3614046FB6923
:1026000043F48043FB6125F003FE3A4698E803005B
:1026100025F044FE6169E269236909B10B61236910
:1026200003B15961B96B8C4208BFBB63FB6B9C4221
:102630004CD0AC4206D02B69C4E904352C61236927
:1026400003B15C61B44244D07369C4E9046374614A
:102650006169002943D00C612369002B3CD0D3076A
:10266000A3D50AAD2368214606AC2846DB6B984704
:102670003E6895E80F0084E80F00099B38460093F8
:10268000F56D94E80E00A8470EB0BDE8F08131B1B9
:10269000226A22B1CB6943F40063CB61E36943F45E
:1026A00000630DF108081C4A3946E3614046FB69A6
:1026B00043F48043FB6125F0ABFD3A4698E8030004
:1026C00025F0ECFDE36961691A4688E76169F96301
:1026D000AFE7D4E9043103B9FC630029BFD1BC637F
:1026E000BDE73FF462AF61690E4609B95DE71E467A
:1026F000013202D07369002BF9D1A31B2546B3FA2E
:1027000083F35B09002B3FF464AF0EB0BDE8F081AA
:102710008004009078040090C93F000838B5C1B12A
:10272000002A05DDD0F8FC3313B19C69844203D044
:10273000BDE83840FFF720BF0C69A34210D0154612
:1027400001E0002DF4D02469013DA342F9D1521BD0
:10275000EEE7044826F056FBBDE8384024F00EB9F9
:102760000022E5E778040090F0B58FB0002955D03D
:102770008B690C46002B32D1C36B0546C1E905308D
:1027800003B11961AB6BEC63002B30D022B12B6825
:10279000214628461B6E9847E369D90715D50AAF2D
:1027A0002368214606AE3846DB6B9847D5F800C053
:1027B00097E80F0086E80F00099B28460093DCF895
:1027C0005C7096E80E00B847E369AA6C72B340F2F9
:1027D00001429A4335D09A050BD40FB0F0BD23487F
:1027E00026F010FB0FB0BDE8F04024F0C7B8AC6392
:1027F000CCE743F4006304AE29461D4AE36130464A
:10280000EB6943F48043EB6125F002FD2A4696E82C
:1028100003000FB0BDE8F04025F040BD154826F09C
:10282000F1FA0FB0BDE8F04024F0A8B803F01402AC
:10283000142ACCD12B68214628469B6C9847E36923
:10284000C5E743F4006302AE094A2946E361304616
:10285000EB6943F48043EB6125F0DAFC2A4696E805
:10286000030025F01BFDE369B5E700BF900400906D
:10287000C93F000888040090002A07DBD0F8FC3329
:1028800023B19B69834208BF4FF0FF32FFF76CBF53
:1028900010B584B000226C461146204631F0B0FAE3
:1028A00094E80F0024F0E6FCB0FA80F0400904B090
:1028B00010BD00BF10B5044680F80E1481B9D0F8E1
:1028C000FC0318B1036840221B6C9847E16DF1B11D
:1028D00008694022002103681B6C9847012010BD45
:1028E000C26D7AB110694021002203681B6C9847C1
:1028F000D4F8FC0320B10368002240211B6C9847E8
:10290000012010BD036840211B6C9847F0E7236845
:10291000204640221B6C9847012010BD00B583B0B3
:1029200003460548009105490EF036F903B05DF8FD
:1029300004EB0EF045B900BFD0610190B461019085
:1029400084B02DE9F04F04469DB0406D27AE0028BD
:1029500086E80E0000F39D80636C002B3AD0A569D9
:1029600085B1CD4B1B78002B40F09C802A9B2046E4
:10297000009396E80E00FFF783FB1DB0BDE8F04F13
:1029800004B070472C330FCB24F074FC38B12946C7
:10299000204625F0BFFE2946606C25F0BBFEBF4BEC
:1029A000656C1B78002B40F089800DF1040C05F15B
:1029B0002C070DF1300896E80F008CE80F00AB6B88
:1029C0004046009397E80E0024F0BCFC98E80F0006
:1029D00087E80F00B04B1B78002B63D1A369002B55
:1029E000C4D104F128082A9B01AD0DF1400998E8F3
:1029F000030085E803004846009396E80E0024F0A3
:102A00005BFD139F98E80F0085E80F00304699E8BA
:102A10000E00009724F058FC96E80F0024F02AFCE2
:102A20000028AAD1D4F8F873002FBA4640F3B08139
:102A300080460DF1500983464FEA081A04EB0A0755
:102A400096E80F0007F56E7785E80F00FB684846AB
:102A5000009397E80E0024F037FC99E80F0024F06B
:102A600009FC002839D0D4F8F87308F1010847456B
:102A7000BA4652DDB8F1030FCCBF4FF0010B4FF057
:102A8000000BD9DD40F6045204214046FFF746FF13
:102A9000D2E7834826F0B6F91DB0BDE8F04F04B088
:102AA00023F06CBF626B04F12803304600920ECB1A
:102AB00024F04CFDA369002B93D057E7626B0CAF59
:102AC00004F128032C35384600920ECB24F03EFD4D
:102AD00097E80F0085E80F007CE7BBF1000F40F09E
:102AE000768196E80F0085E80F000CADFB6828465C
:102AF000009397E80E0024F025FC95E80F0087E886
:102B00000F00A24408F1EA080AF56E7A9AE80F006D
:102B100024F0FCFC44F828002FE7022F40F3388112
:102B2000042F00F0C88104EB0A1A032F96E80F0067
:102B30000AF56E7A8AE80F0000F2B68104F56A732E
:102B40006FF000424FF0000BEA3707930DF1600879
:102B50000A9296E80F0024F0D9FCD4F8F833DDF897
:102B60001CA044F827000795CDE908BB9B45D94632
:102B700000F3B5800BF1010B9B455E4638DC04EB9E
:102B80000917CDF82CB0DDF828B007F56E77B9F14C
:102B9000030F30DC032E00F2858004EB0613079D43
:102BA00003F56E730FCB85E80F00FB68404600937A
:102BB00097E80E0024F0C6FB98E80F0024F0A6FC6E
:102BC000DAF80030050204EB8602D2F8A823134499
:102BD00095FBF3F55D4502DAAB46CDE908690136B0
:102BE000D4F8F833B342D2DACDF828B0DDF82CB0FF
:102BF0000AF1040ABAE740F6225204214846FFF7D8
:102C00008DFE032E1CD804EB0613079D03F56E738F
:102C10000FCB85E80F00FB684046009397E80E0055
:102C200024F090FB98E80F0024F070FC40F624524A
:102C3000050204214846FFF771FEDAF80030C2E7CA
:102C400040F6225204213046FFF768FE079D04EB50
:102C5000061303F56E730FCB85E80F00FB68404643
:102C6000009397E80E0024F06DFB98E80F0024F025
:102C70004DFC40F62452050204214846FFF74EFE63
:102C8000DAF8003040F62452042130460A93FFF768
:102C900045FE0A9B97E700BF500F0020A80E0020BA
:102CA0009804009040F6225204213046FFF736FE89
:102CB000079D04EB061303F56E730FCB85E80F0039
:102CC000FB684046009397E80E0024F03BFB98E831
:102CD0000F0024F01BFCDAF800300502D2E7099B54
:102CE000079D032B00F2A680089B032B05D940F615
:102CF0002F5204210898FFF711FE089B0DF13009AF
:102D00001F01099B4FEA0318E31903F56E7304EBE7
:102D100008060FCB06F56E7685E80F00F368484687
:102D2000009396E80E0024F00DFB99E80F0086E86A
:102D30000F0004EB080303F56E730FCB24F0E6FBE2
:102D4000099BD4F8F853EA3344F82300089B9D42CA
:102D50003FF413AE032D00F2D880089B032B00F242
:102D6000B38004EB0513D4F8F863E51903F56E732B
:102D7000032E05F56E750FCB85E80F0000F2CC80B1
:102D8000EA36089B54F82620EA3344F82320F4E579
:102D9000002F46DB04EB0A1A032F96E80F000AF512
:102DA0006E7A8AE80F0005D940F6115204213846A0
:102DB000FFF7B4FDEA3796E80F0024F0A7FBD4F83C
:102DC000F83344F827000133C4F8F833D5E540461A
:102DD00040F6085204210DF13009FFF79FFD4046EF
:102DE00040F607520421FFF799FD96E80F0085E8A9
:102DF0000F00FB684846009397E80E0024F0A2FA03
:102E000099E80F0087E80F00404640F60A52042177
:102E1000FFF784FD40F6095204214046FFF77EFD8E
:102E20006FE638464FF451620421FFF777FDD4F87E
:102E3000F873AFE7184640F62F520421FFF76EFDF6
:102E4000089B032B6FD8089B40F62E52099E042145
:102E50001F010DF1300930464FEA0618FFF75EFDFD
:102E6000E319099604EB080603F56E7306F56E7612
:102E70000FCB85E80F00F3684846009396E80E00F4
:102E800024F060FA099D99E80F0086E80F002846B3
:102E900040F631520421FFF741FD4FF45362042103
:102EA0002846FFF73BFD44E740F61B520421384615
:102EB000FFF734FD42E63946384640F61A52FFF72E
:102EC0002DFDD4F8F8732EE6184640F6355204214D
:102ED0002744FFF723FDD4F8F86304EB051307F547
:102EE0006E75032E03F56E730FCB85E80F0005D9C1
:102EF00040F6385204213046FFF710FD40F63752B5
:102F000004210898FFF70AFD3AE740F636520421FB
:102F10002846FFF703FD20E740F6385204213046EB
:102F2000FFF7FCFC2CE740F62F5204210898FFF72E
:102F3000F5FC88E782B08DE80C0002B0704700BF56
:102F400082B08DE80C0002B0704700BF82B08DE8FF
:102F50000C0002B0704700BF84B070B582B0DDE9EC
:102F60000A5607ACCDE90056056884E80E002D6AC4
:102F700094E80E00A84702B0BDE8704004B0704766
:102F8000436A8B4220D0036A4162EBB1C2695105AA
:102F9000F0B504468FB018D51E6B04ADA369F16976
:102FA0002846DA6941F4805142F48042F1611946C1
:102FB000DA611E4A25F02CF9224695E803000FB08D
:102FC000BDE8F04025F06AB97047836902AD174A41
:102FD00006AEDF691946284647F4A047DF6125F0B1
:102FE00017F9224695E8030025F058F9A7693046FD
:102FF0000AAD7A6B07F1280300920ECB24F0A6FAF3
:10300000D7F800C096E80F0085E80F000D9B384602
:103010000093DCF85C6095E80E00B047236A13B1BA
:10302000E2695205B8D40FB0F0BD00BFC93F000837
:1030300003685B6A184700BF82B08C46F0B587B062
:1030400004469DF84C1010AF129802AE05910CA9E1
:1030500004900EAD81E80C0097E803000CAB86E805
:10306000030095E8030026680CCB8DE80300614659
:10307000B56A2046A84707B0BDE8F04002B07047E7
:103080000368DB6A184700BF84B0F0B587B00568F5
:10309000119E0DAC0196DDE91276CDE90276149F02
:1030A000109E049700962D6B84E80E0094E80E00A5
:1030B000A84707B0BDE8F04004B0704782B070B5D3
:1030C00084B00D4604460AA90C982E680DF1200C18
:1030D000029003C98CE80C008DE8030029462046C5
:1030E000756BDCE90023A847204604B0BDE87040BA
:1030F00002B0704730B4056882B0AD6B6C46AC4628
:1031000084E8060094E8060002B030BC604700BFC7
:103110000B6810B50446DB6B9847204610BD00BF16
:1031200003681B6C184700BF70B50C46096B054659
:1031300082B0A36A626B5E1AE06A002EA0EB020402
:10314000B8BF7642002CB8BF6442A64209DB994260
:10315000B8BF03F1FF338B4223DAA64203F1010328
:1031600006DC8242B8BF00F1FF30904213DA013032
:10317000994202DD0C4619462346824202DD14467E
:1031800002462046013001330090284624F01CF806
:10319000284602B070BD9942F4DD0C46194623461C
:1031A000F0E7A642E9DCDCE784B02DE9F04184B029
:1031B000064619480BACE8460F9F84E80E00002134
:1031C00023F002FC00230546314640463362FFF7F8
:1031D000ABFF05F1100E05F1200C98E80F0006F189
:1031E00030088EE80F0094E80F0005F1400E8CE8DF
:1031F0000F0098E8030006F128022F6305F1380359
:103200008EE8030092E8030083E80300356204B00F
:10321000BDE8F04104B07047900200900B6A10B511
:10322000044613B193F8343023B92046FFF77CFFEE
:10323000204610BD0023C0E90033C0E90233204618
:1032400010BD00BF10B50446FFF76EFF204610BD4D
:103250002DE9F04196B000F12807044602AD85E85B
:10326000060097E80C0095E8030023F033FF0028E0
:1032700045D0A669002E45D0E36913F001025DD068
:103280000DF11808236821464046DB6B98470DF185
:10329000380CD6F800E098E80F008CE80F00119B7E
:1032A00030460093DEF85C609CE80E00B0470023D7
:1032B000A669236295E8030087E80300FEB1E3698D
:1032C000DD0717D50AAF2368214612AD3846DB6B00
:1032D0009847D6F800C097E80F0085E80F00159BC7
:1032E00030460093DCF85C6095E80E00B047A669B4
:1032F0002EB1E369580502D5F26991040AD516B0DA
:10330000BDE8F08195E80300266287E8030016B067
:10331000BDE8F08143F4006304AD42F480423146DD
:10332000E3612846F261084A24F072FF224695E8DC
:10333000030016B0BDE8F04124F0B0BF95E80300EB
:10334000226287E80300BBE7C93F00082DE9F0418E
:1033500096B000F13007044602AD85E8060097E814
:103360000C0095E8030023F0B5FE002845D0A669BF
:10337000002E45D0E36913F001025DD00DF118086D
:10338000236821464046DB6B98470DF1380CD6F890
:1033900000E098E80F008CE80F00119B3046009386
:1033A000DEF85C609CE80E00B0470023A66923624B
:1033B00095E8030087E80300FEB1E369DD0717D550
:1033C0000AAF2368214612AD3846DB6B9847D6F822
:1033D00000C097E80F0085E80F00159B304600936A
:1033E000DCF85C6095E80E00B047A6692EB1E36991
:1033F000580502D5F26991040AD516B0BDE8F081EE
:1034000095E80300266287E8030016B0BDE8F08166
:1034100043F4006304AD42F480423146E361284640
:10342000F261084A24F0F4FE224695E8030016B043
:10343000BDE8F04124F032BF95E80300226287E83E
:103440000300BBE7C93F000882B02DE9F04F95B0FB
:103450008946B249209C02900594219C03920694CF
:103460001EAC84E80C001F9BD9E9080A049323F0E2
:10347000EFFB0446219B0CA8D4E90478D4E9065656
:103480000093EB1BA6EB080B07931EAB0ECB24F0AF
:103490004DF8229B002B00F09A80229B013B089361
:1034A000032B13D8DFE813F0DD00E800EC00040084
:1034B000059D1AF0020F079BA5EB030700F0E880BB
:1034C000049A069E11469046A6EB020B089B012B20
:1034D00051D9B045B8BFAF42A26B236CA5EB070A28
:1034E000ACBF012100219A4284F834103CDAE16B30
:1034F0006A1E636C7D1E17469942A5EB020238DAFC
:10350000731E08F1FF369846F31AD9F81C10012AE9
:1035100008BF3D46012B08BF4646CB053FD410AB44
:103520003946424612AF1846039323F0CFFD039B62
:10353000484693E80600FFF709FF32462946384619
:1035400023F0C4FD484697E80600FFF781FEC9F85E
:10355000204002985A46514623F0B8FD029815B013
:10356000BDE8F04F02B07047E16B5246636C994280
:10357000C6DB5B46C9E71AF0010F40F096801AF0EF
:10358000040F0AF008030AF0040200F0BE80002BCA
:1035900040F0BB80079B039F1D463D4499E70AAC62
:1035A00042463946204623F091FD09F13003324668
:1035B00009F1280994E8030083E80300294620461E
:1035C00023F084FD94E8030089E80300C1E7E26A80
:1035D00004F120030C990EA800920D9A089109920B
:1035E0000ECB23F0A3FFA16AE26A6D1A0899A6EB3D
:1035F000020C0F9ED4E90830FF1A0E9BA8EB0008BE
:1036000099426BD00AF001021AF0040F0AF0080187
:103610005FFA82FE4CD003980744002940F0E08016
:10362000BEF1000F40F0E980079B3B441D46099B1B
:10363000B3424BD01AF0100F0AF020030AF0020137
:10364000CAF340024FD1002B6AD0002A68D1049AF5
:103650009044069A62441646002B74D0A6EB0B08E1
:1036600037E7049B0BEB03069846089BA6EB080B79
:10367000012B3FF62EAF7EE7069EA6EB0B08F4E784
:10368000079B1AF0020F039F03EB07057FF418AFA7
:103690001AF0100F0AF020030AF010022DD063BBBD
:1036A000049B0BEB0306984610E7059D039F10E76C
:1036B000002951D0BEF1000F4ED1039B1F44059B42
:1036C0001D44002AB3D1079BEF1AB0E7049B98442E
:1036D000069B63441E46A6EB080BFAE6039B1F44B9
:1036E000059B1D44A3E7049A9044002B7ED100293A
:1036F00040F08F800BEB0806EBE6002B62D0002A2F
:1037000060D1069EA6EB0B08E0E6002B4BD0002A0A
:1037100049D1059D079BEF1ADBE600BF90020090A0
:10372000099A02FB08F8049A98FBF6F89044002BDB
:1037300033D1099B03FB0CF2069B92FBF6F6334454
:103740001E460029C7D1A6EB0806B6EB0B0648BFFC
:10375000013608EB6608CDE7089800FB07F70398E9
:1037600097FBF3F7074491B9089901FB05F191FB29
:10377000F3F5059B2B441D46002A7FF458AFED1B43
:10378000079BED1A48BF013507EB65074CE7059B22
:103790001D44002A7FF44BAF95E7069A6244164613
:1037A000002998D158E71EAB0FCB23F0A5FE079B4D
:1037B000C01A039B48BF013003EB6007079B3B44E3
:1037C0001D4686E61EAB0FCB23F08CFEB0EB0B0044
:1037D000049B48BF013003EB60080BEB080675E65D
:1037E000059B1D44002A7FF422AFC8E7069B634473
:1037F0001E4600297FF46FAFA5E7089901FB05F18C
:1038000091FBF3F5059B2B441D46002A3FF40CAFBA
:103810000DE7099B03FB0CF2069B92FBF6F6334483
:103820001E4658E770B58AB0044604AD85E8060028
:1038300003BB059906AE00F13002049B30460091AF
:1038400008AD06CA23F074FC204696E80600FFF790
:103850007DFD059B04F1280228460093049B06CABF
:1038600023F066FC204695E806000AB0BDE87040EB
:10387000FFF7EEBC02AD059A00F130060B46284674
:103880000092283496E8060023F052FCDDE9043269
:10389000009295E8030086E80300284694E80600B5
:1038A00023F046FC95E8030084E803000AB070BDED
:1038B00010B4046883B0646C6B4683E8060093E838
:1038C0000600234603B05DF8044B184710B40468A3
:1038D00083B0A46C6B4683E8060093E80600234699
:1038E00003B05DF8044B184710B4046883B0E46C6F
:1038F0006B4683E8060093E80600234603B05DF8B4
:10390000044B184710B4046883B0246D6B4683E8F9
:10391000060093E80600234603B05DF8044B184701
:10392000036C826A816B934230B412D08B4202D016
:10393000002030BC7047036B9A42F9D1426CC36AD5
:103940009A42F5D1C36B406B181AB0FA80F0400967
:10395000EFE7026B8A42EBD1426CC46BA24202D009
:103960008B42E5D1EBE7456BC46AA542F8D1012053
:10397000DFE700BF84B070B582B0056807AC0A9E6F
:1039800000966D6C84E80E0094E80E00A84702B023
:10399000BDE8704004B0704782B02DE9F04FB3B07D
:1039A000846B00203CAD0DF1380A0E90CAF804007B
:1039B00085E80C009DF80C31CAE902000793002C41
:1039C00077D0012308910DF1580901AD09934AE020
:1039D000DA0746D55B0571D40DF1880B22680DF529
:1039E000807821465846D26B904712AE98E8030083
:1039F00085E80300259F26A89BE80E00009723F08A
:103A00005BFD3CAB0FCB85E80F0026AB299F304612
:103A10000ECB009723F058FC96E80F0023F02AFC09
:103A2000F8B92EAFD4F800E00DF1300C96E80F0095
:103A300087E80F00079B02AE98E803000593429BBE
:103A400004938CE8030097E80C0086E8030032A991
:103A500011E903008DE8030008992046DEF828608C
:103A6000B04724692CB3E3699905B1D5394920469B
:103A700023F0EEF840AA064600F1280392E803007E
:103A800085E80300726B484600920ECB23F014FDCC
:103A90003F9F99E80F0085E80F003CAB0097504628
:103AA0000ECB23F011FCF269E36902F001020992E6
:103AB0008EE733B0BDE8F04F02B07047099B002B92
:103AC000CFD00DF1680B22680DF58078214658465D
:103AD000D26B904712AE98E8030085E803001D9F63
:103AE0001EA89BE80E00009723F0E6FC9AE80F0062
:103AF00085E80F001EAB219F30460ECB009723F0C8
:103B0000E3FB96E80F0023F0B5FB0028A9D12AAF0C
:103B10000DF1280C0DF1080E96E80F0087E80F0054
:103B2000079B2CAE98E80300D4F800800593429BD5
:103B300004938CE8030097E80C008EE8030096E8F5
:103B400003008DE8030008992046D8F82860B047A4
:103B500087E700BF8C01009082B02DE9F041044658
:103B600094B00F462098E16C9DF8846000FB011131
:103B70001AA80D1280E80C0016B1E669C6F34006DB
:103B8000636C002B3BD0FF22EBB210AD1146104608
:103B900022F096FB0E90606C04F0E0FB1EA9D4F8B6
:103BA00034C001AA04F12803D4F8448003AC03C94B
:103BB00082E80300CDF800C028460ECB23F07CFC41
:103BC00020490E9B07AA0D9600260C93099303C962
:103BD000CDE90A3382E8030095E80F0084E80F007E
:103BE0001D9B3846CDF8048000931AAB02960ECB8D
:103BF00004F0CAF814B0BDE8F04102B07047E16AC1
:103C00000DF138081EAAA36A4046009106CA23F0A7
:103C10008FFA0DF1080E0DF1700C1AABCDE90456B8
:103C200098E803000CCB8EE803009CE803008DE8C5
:103C3000030039462046FFF7AFFE14B0BDE8F0415F
:103C400002B07047B403009082B02DE9F04F2D4CC4
:103C500095B00F46064694F800801EA99DF894A0E2
:103C600022AC81E80C00B8F1000F31D101AD219BED
:103C70000DF1300B0DF1400994E80300C5E9000196
:103C800000931EAB58460ECB23F016FC06F128031A
:103C90000B9593E80300C5E900010F9D48469BE89A
:103CA0000E00009523F008FC174B0B9DD3F8A034B1
:103CB000CDE90838CDE90633059399E80F0085E88A
:103CC0000F00219B384600931EAB0ECB04F026F963
:103CD000249902AACDF814A020AB049194E8030023
:103CE00082E8030093E803001EAB0CCB8DE80300D1
:103CF00039463046FFF730FF15B0BDE8F04F02B04F
:103D0000704700BF500F0020000000902DE9F04FD9
:103D1000AFB0426B00F1280306460DF1480AC769AF
:103D200000920DF15809504607F480570ECB23F04E
:103D30000DFC0022F46BC9F804201692C9E9022296
:103D4000CDE90822A4B19F4D09E023F40063E361AB
:103D500013F4007F4FF0010249D1646944B1E36973
:103D60001905F2D4002AF3D164690022002CF6D19F
:103D7000B56BF369002F40F0F780049743F40053CC
:103D8000F361D5B14FF0000801AB4446CDF81C807B
:103D9000CDE90583D5E9077378054DD523B11B6BB4
:103DA00043454BD000232B62002C2DD1BB0500F1E5
:103DB0009B802D69002DEDD1F3690CAC159A23F48D
:103DC00000532046F36100929AE80E0023F0AEFB08
:103DD000326810AB94E80300546D83E8030030466A
:103DE00093E8060023462FB0BDE8F04F1847294658
:103DF000204622F02DFF436C0022002BB4D0E36953
:103E000043F48053E361A8E76B6A142B02D1059B4E
:103E1000002BCBD02F680DF1780CCDF8048099E8F9
:103E20000F008CE80F00219B284600933F6A9CE816
:103E30000E00B847D5E90773002BB7D0049BD3B168
:103E400017F4806E40F0AC8022AF0DF1900CD5F8E5
:103E500000B09AE80F0087E80F00CDF808E09CE872
:103E6000030097E80C008DE803002946DBF8347066
:103E70000EA8B847EF69002C98D0790596D50DF1BA
:103E8000200B199B069A26AF9BE8030082E80300EB
:103E900000931AA899E80E0023F00EFB1AAB0DF15F
:103EA000A00CD5F800E00FCB87E80F00059B02932C
:103EB0009CE8030097E80C008DE803002946DEF833
:103EC00034700AA8B847EF69FA077FF56FAF059B12
:103ED00000220A99013BCDE910220B9A032B55D8F9
:103EE000DFE803F06B5067623649284622F0B0FEE7
:103EF00017F4805480463FF45CAFEA6900F1380360
:103F000000F12807002422F4805293E80300069B66
:103F1000EA6183E80300D8F834304846009397E814
:103F20000E0023F0C9FAD8F844300593D8F8403091
:103F3000079399E80F00CDE9084423F09BF9002886
:103F40007FF437AF0DF1A80CD6F800E0012497E814
:103F50000F008CE80F002D9B30460093DEF85C705C
:103F60009CE80E00B84724E723F48053F3619AE8F5
:103F70000F0023F07FF9B0FA80F31A46F369520973
:103F80000492FBE65342079A9B1A1193119A5846E2
:103F9000109B00929BE8060023F0CAF8EF6905E742
:103FA000002C7FF46CAF01E74B42079A9B1A1093E9
:103FB000ECE7079B19441091E8E7079B1A4411921C
:103FC000E4E700BF8C01009070B5C5690446690440
:103FD0000BD429460A0410D5236821F40041204659
:103FE000E1619B6DBDE87040184725F48043C361D3
:103FF000FFF78CFEE1690A04EED4EB04ECD470BD4B
:1040000003689B6C184700BF03681B6C09B9012249
:10401000184700220121184770B584B0064602AD4A
:1040200085E80C0059B10C46E36A28460093A36A60
:1040300095E8060023F06AF8A469002CF4D195E80D
:10404000030086E80300304604B070BD0368DB6CF3
:10405000184700BF2DE9F04F8BB0C46B80468946EE
:1040600002AE149F86E80C00C4B1DFF8A0A006AD34
:104070007FBB236821462846DB6B984796E8030000
:104080008DE8030095E80F0023F0DAF878B90123F2
:10409000002064690CB1002BE9D1B8B9D8F8003020
:1040A00049464046DB6A0BB0BDE8F04F1847514621
:1040B000204622F0CDFD4946054688B923682046B2
:1040C000DB6A9847B0FA80F35B09E2E70BB0BDE822
:1040D000F08F3946E06923F02FFF0028C9D1D6E7D9
:1040E000C36A0DF1100B00935846AB6A96E80600C0
:1040F00023F00CF80097284649469BE80C00FFF790
:10410000A9FFB0FA80F35B09C3E700BFA4040090E5
:1041100010B483B06C4684E80C0094E80C0003B043
:104120005DF8044BFFF796BF03681B6D184700BF8F
:1041300010B4046883B0646D6B4683E8060093E8AE
:104140000600234603B05DF8044B184703689B6DD7
:10415000184700BF30B5C36983B0044601466D46B9
:1041600043F40043064A2846E36124F051F822460E
:1041700095E8030003B0BDE8304024F08FB800BFDD
:10418000C93F000810B5044622F000FC142006497F
:104190001F22FF23606220462160E261E364BDE8E4
:1041A0001040FFF7D7BF00BFA404009084B070B5E3
:1041B00082B0056807AC0A9E0096ED6D84E80E009B
:1041C00094E80E00A84702B0BDE8704004B0704704
:1041D000FFF7C0BF70B529B38B69834222D1164661
:1041E000D1E90445314604B9E5B19CB1B6B1E06905
:1041F00023F0A2FE314688B995B1E86923F09CFE10
:1042000058B924696D69EDE7E86923F095FE20B996
:104210006D693DB13146002EF6D12C46204670BD69
:104220002469DFE70024204670BD00BF2DE9F0437C
:10423000C7698FB086690446BD0527EA0205B14605
:1042400048BF21F480610D436F40C561002E53D0FB
:1042500017F0140F06D005F01403B26C142B40D0E5
:1042600090426AD040F203431F4261D00DF118081A
:10427000236821460AAE4046DB6B9847D9F800C058
:1042800098E80F0086E80F000D9B48460093DCF885
:104290005C8096E80E00C047236AA6691BB16805DA
:1042A00001D5F9072FD40EB17A0502D40FB0BDE8BD
:1042B000F083E36904AD0022314643F400632846ED
:1042C0002262E361F369224A43F48043F36123F0FD
:1042D0009FFF224695E803000FB0BDE8F04323F0AE
:1042E000DDBF002ABED13368304621469B6C98471B
:1042F000A669B146002EB5D1236A002BD6D06B0536
:10430000D4D5F907CFD5E36902AD3146104A43F45D
:1043100000632846E361F36943F48043F36123F0CB
:1043200077FF224695E8030023F0B8FFA669BAE7B5
:10433000236A4E46002BB2D1B6E7214614223046FE
:10434000FFF748FF3368014630469B6C9847CFE73C
:10435000C93F000870B5044682B0C669FFF766FF22
:10436000A06CE56918B185EA06035B0613D4B54273
:104370001BD0E3696D4621460E4A43F400432846AC
:10438000E36123F045FF224695E8030002B0BDE853
:10439000704023F083BF036815F040011B6C06D00A
:1043A000002240219847B542E3D102B070BD4022BF
:1043B0009847DCE7C93F0008F0B5044693B00E46C5
:1043C0001546FFF7C7FFA3690BB113B0F0BD2E432D
:1043D000F2071AD502AF626B04F128030AAD384622
:1043E00000920ECB23F0B2F8D4F800C097E80F008B
:1043F00085E80F000D9B20460093DCF85C7095E883
:104400000E00B847A369002BDFD1B307DDD5626B7F
:1044100006AE04F128030EAD304600920ECB23F019
:1044200095F8276896E80F0085E80F00119B204655
:104430000093FC6D95E80E00A04713B0F0BD00BFDF
:1044400003681B6E184700BF03685B6E184700BF08
:1044500010B504460021054822F0B6FA236E002B61
:1044600016BF012200220361027510BD28040090CE
:1044700010B504460021054822F0A6FA236E002B51
:1044800016BF012200220361027510BD04040090D2
:1044900010B504460021054822F096FA236E002B41
:1044A00016BF012200220361027510BDE0030090D7
:1044B00010B504460CF09CFBD4F868330BB1834272
:1044C00007D300230022C4F86803C4F86C231846FD
:1044D00010BDD4F86C134FF47A72C31AC4F8680391
:1044E00002FB01F292FBF3F300221846C4F86C239E
:1044F00010BD00BFFFF7DCBFD0F8F833002B07DD9D
:10450000D0F86C3300220133C0F8F823C0F86C33C4
:10451000704700BFD0F8F833002B07DDD0F86C33BC
:1045200000220133C0F8F823C0F86C33704700BF95
:1045300082B02DE9F04F1446A5B0002589460892B7
:1045400010AE309A203409900AA8009275602F931B
:10455000109594E80600C6E9025522F0E9FD0B9A91
:104560000A9B14A800922FAA06CA22F035FED9F899
:104570005430D9F8F8A30133AA45C9F8543016DDF0
:1045800001AB09F56A7B07935BF8043B09EB051463
:104590000DF17008002B04F56E741CDC0AF1010AA1
:1045A0000135AA4501DD032DEEDDD9F85430013B7C
:1045B000C9F8543096E80F0022F05CFE002857D06E
:1045C000099C96E80F0084E80F00099825B0BDE823
:1045D000F04F02B070472FAB20AF93E80300079B6A
:1045E00083E80300E36818A8009394E80E0022F023
:1045F0004DFF2FAA0CA806CA22F0ACFD18AA4FF056
:10460000010E0DF1380C0FCA87E80F000CAA02AB9F
:1046100092E80300FF228CE80300CDE9042E24AACF
:10462000D9F800C083E8030012E9030097E80C0002
:104630008DE8030008994846DCF82870B847179FB2
:1046400094E80F00079C84E80F0014AB00974046E5
:104650000ECB22F039FE139C079F98E80F0087E8E5
:104660000F000094304696E80E0022F06BFE97E7AC
:104670002FA9139A01AB03C983E80300009209989C
:1046800096E80E0022F002FF9FE700BF82B030B52F
:1046900083B00446089D07930095FFF749FF204625
:1046A00003B0BDE8304002B0704700BF002A70B4CC
:1046B00006461EDBD1F8F80300281ADD01F56A74FE
:1046C000002306E0013001320133984211DD032B53
:1046D0000FDC54F8045B002DF4D09A42F4D101EBC6
:1046E000021202F56E720FCA86E80F00304670BCE7
:1046F000704700233046C6E90033C6E9023370BC78
:10470000704700BF10B50446FFF7D0FF204610BD2C
:104710002DE9F04FD0F8F813A9B0BC4B01220029C5
:1047200010ADBB4C8346D4BF0021012128461F7821
:1047300024782FF065FB95E80F0022F09BFD70B9FF
:1047400014AEDBF800C095E80F0086E80F00179B59
:1047500058460093DCF85C5096E80E00A8473C43AE
:10476000DBF8F8532CD1002D2ADD5E46D8461CAA72
:1047700008F56E7308F1100802EB041701340FCB33
:10478000AC4287E80F0000F08E81032C40F6B26245
:1047900021462046EBD1FEF7C1F8E8E727010026C5
:1047A0001CAB0BEB06053344103605F55C75BE42B9
:1047B0000FCB85E80F00F3D1DBF8F853CBF8A0431B
:1047C0006C1E002C67DD00230BF56A7907930893B4
:1047D000D9F80030079A002B02F101083DDDA84509
:1047E0003BDA130109F104064446CDF828800B9307
:1047F0005B4403F56E7A032C46D83368002B24DD26
:10480000089B002B67D1032C00F2248127010DF1B6
:1048100004080BEB070303F56E730FCB88E80F005A
:10482000DAF80C301CA800939AE80E0022F08AFDFA
:104830001CAB0FCB22F06AFED9F800303268054677
:10484000C31A9B1A002BC0F2E5800134DBF8F85341
:104850000436A542CFDCDDF828806C1E44451ADD05
:10486000B8F1030FCCBF01230023089307DD40F606
:10487000BF6204214046FEF751F8DBF8F85309F116
:104880000409CDF81C80A3E740F6C162042120464C
:10489000FEF744F8B1E7002C12DB04F1EA050BEB5C
:1048A0008505032C10DC55F80439013C23B9DBF8ED
:1048B000F833013BCBF8F833631CF2D1DBF8F85343
:1048C000284629B0BDE8F08F40F6D1620421204689
:1048D000FEF724F8E7E740F6C46204210798FEF7E4
:1048E0001DF8032C24D827010DF104080BEB070356
:1048F00003F56E730FCB88E80F00DAF80C301CA8B4
:1049000000939AE80E0022F01DFD1CAB0FCB22F0A5
:10491000FDFD40F6C662054604210798FDF7FEFF3F
:10492000D9F800303268EB1A9B1A002B8DDA35E08B
:10493000270140F6C46204212046FDF7EFFF0BEB90
:1049400007030DF1040803F56E730FCB88E80F0021
:10495000DAF80C301CA800939AE80E0022F0F2FC62
:104960001CAB0FCB22F0D2FD40F6C66205460421F7
:104970000798FDF7D3FFD9F80030EB1A099340F6FA
:10498000C76204212046FDF7C9FF3368099AD31A8C
:10499000002BBFF65AAF089B002B3BD040F6CA62F3
:1049A00004210798FDF7BAFF032C00F2A38040F61C
:1049B000C962042107985F44FDF7B0FF0B9B0BEB26
:1049C000030207F56E7302F56E770FCB88E80F00D0
:1049D0000CAAFB681046009397E80E0022F0B2FC88
:1049E0000CAB0FCB87E80F0040F6CB620421079891
:1049F000FDF794FF032CC9F8005028D940F6CC628B
:104A000004212046FDF78AFF21E000BF500F00205F
:104A10008C000020032C3FD80BEB07030B9A03F507
:104A20006E730BEB02070FCB07F56E7788E80F006C
:104A3000FB680CA8009397E80E0022F083FC0CABF7
:104A4000032C0FCB87E80F00C9F80050D6D80023FD
:104A50003360FAE6270140F6C46204212046FDF7E0
:104A60005DFF0BEB07030DF1040803F56E730FCB2D
:104A700088E80F00DAF80C301CA800939AE80E00C2
:104A800022F060FC1CAB0FCB22F040FDD9F80030C7
:104A90000546C31A099372E740F6CA62042120460C
:104AA000FDF73CFFB8E7DBF8A033002B7FF776AECD
:104AB000002718AD06F55C73DBF800C0013710362F
:104AC0000FCB85E80F001B9B58460093DCF85C80F9
:104AD00095E80E00C047DBF8A033BB427FF75EAE1F
:104AE000022F40F6B5624FF003013846E2DDFDF7D4
:104AF00015FFDFE740F6CA6204212046FDF70EFFEE
:104B000055E700BFF0B5044687B008460D46174686
:104B1000FFF7FEFD30B9C4E90000C4E902002046F9
:104B200007B0F0BD114B3A4602AE2946D3F8B87330
:104B30003046D3F8B4330097FFF7FAFCD5F8F833D2
:104B4000002B06DC96E80F0084E80F00204607B033
:104B5000F0BDD5F86C3300220133C5F8F823C5F851
:104B60006C3396E80F0084E80F00EFE70000009038
:104B7000F0B50546D1F8A40385B00C4650B103F05A
:104B8000EDFB2846D4F8A4232146FFF7BBFF2846B7
:104B900005B0F0BD01460B4821F016FF02AE626B76
:104BA00004F128030746C4F8A403304600920ECB54
:104BB00022F0BCFC384696E8060003F0C1FBD4F8AE
:104BC000A403DCE7A407009010B50446FFF7D0FF6C
:104BD000204610BD10B50446FFF794FF204610BDD7
:104BE000FFF796BDD0F8F833002B01DD01207047A8
:104BF000FDF74EBED0F8F833002B01DD01207047E1
:104C0000FDF746BEF0B591B01B4D044602AB04AEB5
:104C100083E80600039A30460B46009295E80600AA
:104C200022F0DAFA08AD276896E80F0085E80F0051
:104C30000B9B204600937E6C95E80E00B04794F8DD
:104C40000E34A3B9E36943F02003E36104F12803C0
:104C50000CAD26680FCB85E80F000F9B2046009314
:104C6000F66D95E80E00B047204611B0F0BDE3693F
:104C700043F06003E361E9E7B403009082B06B4660
:104C800083E8060093E8060002B0FFF7BBBF00BF51
:104C900090F80E348B4201D0FDF70CBE0020704717
:104CA00090F80E348B4201D0FDF704BE002070470F
:104CB00001667047016670472DE9F04F0F469DB0C1
:104CC00004460AA9092F81E80C0000F2C48007F10C
:104CD00058060A9B0B9A0CADF6000393029200EB68
:104CE0008709A31906F1040A28469A6804EB0A0BFF
:104CF0005B68009206C922F009FA039B029A44F805
:104D00000A30CBF80420D9F84C32002B00F0A380F5
:104D1000A64B95E803000CCB22F0DCF9002800F04C
:104D20009A80D9F84C82D8F81850AC42DDE90232AA
:104D300016D0ADB10DF1380801E0AC420ED0E96AF1
:104D40004046CDE90E230091AB6A98E8060022F0B8
:104D5000DDF9AD69DDE90E23002DEED1D9F84C82E5
:104D6000002D7DD0A6F1C4050021914804EB050C6F
:104D700062510592CCF80430C4F86473049321F0B6
:104D800023FE216E0546002914BF01200020DDE925
:104D90000432287500D0296107F130005436D9F863
:104DA000901004EBC70C04EB060E04EBC0000CF5EE
:104DB0001D7C0DF1600AA6590DF1200BCDE91623DB
:104DC000DEF804204B1C05960492D9F8582107936D
:104DD000069203C8DDE90C968AE803009CE803000C
:104DE000AF641CAF07E9030016AF1B9A58461A9B25
:104DF000009297E8060022F09BF905F140029BE83B
:104E00000300DDE91A3782E803009AE806005846F5
:104E1000009722F08DF9D8F8002005F13803D26A06
:104E20009BE8030083E80300079B40460499AB62BC
:104E3000059BE9612946AB61069BEB62039B2B62F4
:104E4000029BC5E90C966B62904700230120236604
:104E50001DB0BDE8F08F002020661DB0BDE8F08FCA
:104E600044453FF47FAFC4F864732946C9F84C52F7
:104E7000504821F0A9FD236E0546002B14BF0122E6
:104E80000022027500D02B6154F80A0004EBC70120
:104E9000543607F1300E0B46059001F5FE71DBF834
:104EA00004000DF1400CA21904EBCE0E0490D2F8D0
:104EB00004B003F51D73D9F89020A65902F1010A38
:104EC000D9F858210696079203C98CE803009EE89A
:104ED00003000DF1480E8EE8030093E803000DF186
:104EE000500E4FF000032F6485F844308EE8030025
:104EF00008A9159A149B084600929CE8060022F027
:104F000017F908A905F138020DF1200C159E149B24
:104F100003C982E8030012A9604606C9009622F080
:104F200007F908A905F13003059A03C983E80300CE
:104F30004FF000032946404685F84530D8F8003048
:104F4000C5F828A0DB6AC5E907B2069AAA61079AE4
:104F5000EA62049A6A629847D4F8F831434520D04F
:104F60000021154821F030FD226E0346002A14BFAF
:104F700001210021017500D00261D9F890200020A4
:104F8000029E194698850132256803989F625A62ED
:104F90001822D86120461E62C3F818802B6D9847EE
:104FA00053E70023C4F8F831DAE700BFB4030090F8
:104FB0002804009004040090E003009082B06B4647
:104FC00083E80600D0F864130CCB02B0FFF774BE80
:104FD00030B484B005466C4602AB84E8060094E821
:104FE0000300D5F8641383E8050028460CCB04B011
:104FF00030BCFFF761BE00BF10B483B06C4684E8DC
:105000000C0094E80C0003B05DF8044BFFF754BEAD
:105010000BF0EEBD10B504460BF0EAFD206110BDAB
:10502000A1F1300381838277092B10B44FF0000483
:10503000846102D8A1F126038361A1F14103192BF8
:1050400002D801F128038361A1F16103192B04D86F
:10505000083181615DF8044B7047202904D1832316
:105060005DF8044B836170478369002BF2D12A39C4
:105070001329EFD801A353F821F000BFFD50000819
:10508000F7500008F1500008EB500008E550000808
:10509000DF500008555000085550000855500008D2
:1050A000555000085550000855500008555000084C
:1050B000555000085550000855500008D9500008B8
:1050C000D350000855500008CD5000088823836154
:1050D000C0E78C238361BDE78B238361BAE7872315
:1050E0008361B7E789238361B4E785238361B1E7EF
:1050F0008A238361AEE784238361ABE786238361E0
:10510000A8E700BFFFF78CBF10B4A1F10A04A1F11A
:1051100069038277092C81618CBF002201F126028C
:10512000192B828304D8413383835DF8044B704785
:10513000832904D120235DF8044B83837047838B3C
:10514000002BF2D184390829EFD8DFE801F01D1ACD
:105150001714110E0B0805003B238383E5E73A2360
:105160008383E2E72C238383DFE72E238383DCE73B
:105170003D238383D9E72F238383D6E72A238383A1
:10518000D3E72D238383D0E72B238383CDE700BF91
:10519000FFF7BABFA1F18D03072B3DD8DFE803F07D
:1051A0000C323A1521262B04838B002B30D18069D9
:1051B000003018BF01207047808B20F0200041385C
:1051C00019288CBF002001207047808B20F020031D
:1051D000413B052B1CD9303809288CBF0020012009
:1051E0007047808B003018BF01207047838B002BE5
:1051F000DDD0002070478069043803288CBF002070
:1052000001207047808B20F02003413B192BE2D80E
:1052100001207047808BDEE78069401AB0FA80F089
:1052200040097047F0B404AD0446002055F8047BF3
:1052300004F11C06A16284F82C00626295E8030068
:1052400086E803002046A76184F82D30F0BC704743
:1052500070B40026049D80F82D30039B80F82C60EC
:105260008361C0E90921059AC0E9075270BC704703
:10527000F0B404AD0446012055F8047B04F11C068B
:10528000A16284F82C00626295E8030086E80300BE
:105290002046A76184F82D30F0BC704770B4012619
:1052A000049D80F82D30039B80F82C608361C0E959
:1052B0000921059AC0E9075270BC7047F0B587B064
:1052C0000446012701640DF1100C02AD119E84F813
:1052D0004470284600968CE80C00109B9CE8060061
:1052E000DDE90E7621F024FF04F13802DDE910310A
:1052F000009195E8030082E803000CAA284606CA3C
:1053000021F016FF12AB04F1300E04F1200C14AAA8
:1053100095E803008EE8030093E80300E76204F1D8
:105320001803A6628CE8030092E8030083E80300F8
:10533000204607B0F0BD00BF2DE9F04F04468DB008
:105340000120216416A90DF1180C0DF1680E84F8E6
:10535000440008AE0DF1100802AD03C98CE80C0042
:1053600088E80C0086E803000CAB9EE80300DDE94A
:105370001CBA03E903000B9A28460A9B00929CE89A
:105380000600DDE91E9721F0D3FE04F13802DDE9C5
:105390000A31009195E8030082E8030096E80600D0
:1053A000284621F0C5FE04F1300395E8030083E8A8
:1053B0000300189B2046E362199BC4E908BAA36264
:1053C000C4E906970DB0BDE8F08F00BF2DE9F041AC
:1053D00086B00446002701640DF1100C02AD119E49
:1053E00084F84470284600969DF848808CE80C00AC
:1053F000109B9CE80600DDE90E7621F099FE04F191
:105400003802DDE91031009195E8030082E80300DD
:105410000CAA284606CA21F08BFE13AB04F1300E0D
:1054200004F1200C15AA95E803008EE8030093E828
:105430000300E76204F11803A66284F845808CE853
:10544000030092E8030083E80300204606B0BDE8AD
:10545000F08100BF2DE9F04F04468DB0002021649B
:1054600016A90DF1180C0DF1100E84F8440008AEC9
:105470001AAF02AD9DF870B003C98CE80C008EE83D
:105480000C0086E803000CAB97E80300DDE91DA9DA
:1054900003E903000B9A28460A9B00929CE8060049
:1054A000DDE91F8721F044FE04F13802DDE90A310D
:1054B000009195E8030082E8030096E8060028467C
:1054C00021F036FE04F1300395E8030083E8030081
:1054D000189B204684F845B0E362199BC4E908A9EB
:1054E000A362C4E906870DB0BDE8F08F2DE9F04155
:1054F00086B004464FF0010C016402AD04AE0E9F6D
:1055000084F844C02846009700279DF83C8086E830
:105510000C000D9B96E8060021F00AFE04F138020B
:10552000DDE90D31009195E8030082E8030096E87B
:105530000600284604F1200621F0FAFD04F1300CA3
:1055400010AB04F1180295E803000C9D8CE80300F1
:1055500093E80300A56284F84580E76286E80300CB
:1055600082E80300204606B0BDE8F081F0B482B0C6
:1055700007468C466C469DF824606146384684E8B0
:105580000C00099694E80C0002B0F0BCFFF7AEBF27
:10559000F0B587B0044681640DF1100C02AD139E86
:1055A000284600968CE80C00129B9CE80600DDE97A
:1055B000107621F0BDFD04F14002DDE912310091C9
:1055C00095E8030082E803000CAA284606CA21F0E9
:1055D000AFFD0EAA04F1380E14AB04F1300C95E8BF
:1055E000030004F120058EE8030092E8030016AAE8
:1055F0008CE8030093E80300E76204F11803A66255
:1056000085E8030092E8030083E80300204607B022
:10561000F0BD00BF2DE9F04F8FB00446816418A89B
:105620000DF1200C0DF1180E0AAE1EAF04ADDDE930
:1056300020918CE80C00039103C88EE80C0086E8EA
:1056400003000EAB97E80300DDE91ABA03E9030093
:105650000D9A28460C9B00929CE80600DDE9228703
:1056600021F066FD04F14002DDE90C31009195E87E
:10567000030082E8030096E80600284621F058FD62
:1056800004F1380395E8030083E803001C9B2046DF
:105690000399E3621D9BC4F830B0C4F834A0A36240
:1056A000C4F820906162C4E906870FB0BDE8F08FAE
:1056B0002DE9F04F8BB000F1400700F1380C00F1FC
:1056C0003004EE4600F1280302AD04AE8EE8060079
:1056D00097E8030006AF002285E803009CE803007A
:1056E000DDF800C086E8030094E803001646019C3C
:1056F00087E8030093E803000AAB174603E90300B9
:10570000DDE90830A918844255F802E04968ACBFC9
:105710004FF000084FF00108A3EB0E038C42A4EBFE
:105720000109A0EB010BACBF4FF0000A4FF0010ADA
:1057300009FB03F3C24514D093FBFBF373449C4570
:105740000BDD87F00107083208467346202AD9D1BD
:1057500047EA06000BB0BDE8F08FB8BF86F001063F
:10576000F1E78442D4BF002001208C42D4BF4FF027
:1057700000084FF001088045DED1E4E784B02DE950
:10578000F04FA1B02BAD319C85E80E00309B0CB1E1
:1057900084426CD1D0F8B8209A4268DCD0F8B420AA
:1057A0009A4264DBD0F8B0302F9A934201D0002B9C
:1057B0005DDA90F8BC30002B51D0D0F8AC30329A82
:1057C0001A4254D10446FEF7ABF8002856D00EAE6C
:1057D000236821460DF128083046DB6B98472E9F41
:1057E0000DF1040C96E80F008CE80F00009740467E
:1057F00095E80E0021F068FD98E80F00DDE90AB693
:10580000DDE90CA921F036FD074680BB2E9B06A8DA
:10581000009395E80E0021F0ADFEDDE906239345E7
:10582000C8BFABEB0207924502DCAAEB0207013FBF
:105830009E42CCBFF61A0026994502DCA9EB03066E
:10584000013E00213C4821F0BFF806FB06F3054667
:10585000C46107FB0733C0E90576036108E090F8EF
:10586000C030002BA9D0836C2F9A9342A5D000257D
:10587000284621B0BDE8F04F04B07047DDF8B8808D
:105880000EAEDDF8ACA00746CDF800803046DDE96D
:105890002CB995E80E0021F06DFE10AB12AA14ADE4
:1058A000CDE918AB96E8030083E80300CDF840A0EB
:1058B00016AB82E8030096E80300CDF84CB05A46D8
:1058C00085E8030096E80300CDF8509083E80300D4
:1058D00049461AA8CDF85C8021F0F8FB42465146B3
:1058E0001CA821F0F3FBCDE91E9820AB204603EB6A
:1058F000C7060137483E96E80600FFF7D9FE18B9FB
:10590000092FF2D10546B3E700210B4821F05CF8DE
:105910000F9A05460E9B009208A896E8060021F013
:10592000F5FBEC61DDE9083101FB01F2A96103FB44
:105930000322C5E904239BE72402009003681B6C43
:1059400009B91022184700221021184789B3F8B569
:105950000D460446816B2846FFF71CFC40B3AA7F26
:105960000021236984F84320AF69AE8B2869E7637F
:10597000A4F84060A06184F84510E2B18B42E36175
:105980002246CCBF01230B4684F84430CCBF04F13F
:10599000300304F1280393E8030022F073FC94F829
:1059A000450010B9236901332361B0FA80F0400942
:1059B000F8BD08467047012B04F1200103F1FF33C5
:1059C0002261D4BF002001202246E36184F8440014
:1059D00003C922F057FC94F84510B1FA81F0400950
:1059E000F8BD00BF38B50B4604460D49184621F0F6
:1059F0002FF9246C80B1054614B90DE064695CB1DF
:105A000094F84230002BF9D029462046FFF79EFF3C
:105A10000028F3D0204638BD0024204638BD00BF02
:105A2000BC03009070B5866C04460D4610493046A4
:105A300021F00EF990B103682946DB6C984700B15C
:105A400070BD236829462046DB6A98470028F7D1B5
:105A500029462046BDE87040FFF7C4BF002EF0D0B5
:105A6000336830462946DB6A98470028E8D1E8E7E2
:105A7000A40400902DE9F041C46B80460E46F4B1B9
:105A800015461A4F07E0E06922F056FA30B90123B3
:105A900064699CB193B12946002DF4D13946204662
:105AA00021F0D6F82A46314690B103681B6D98471D
:105AB0006469B0FA80F35B09002CEBD130B9D8F8F7
:105AC000003031464046DB6A984748B1BDE8F08176
:105AD00023682046DB6A9847B0FA80F35B09D7E772
:105AE00031464046BDE8F041FFF77CBFA40400907A
:105AF00010B5044631B1036E002B16BF0120002003
:105B00000B6108752046FFF7B5FF0023236610BD23
